:020000040000FA
:1000000030020020F100000017010000D5000000C0
:1000100000000000000000000000000000000000E0
:100020000000000000000000000000001B010000B4
:1000300000000000000000001D010000C5070000D6
:100040002101000021010000210100002101000028
:100050002101000021010000210100002101000018
:10006000490A0000A10A000021010000210100004E
:10007000ED0A000021010000210100002101000023
:1000800021010000210100002101000021010000E8
:1000900021010000210100002101000021010000D8
:1000A00021010000210100002101000021010000C8
:1000B00021010000210100002101000021010000B8
:1000C0000348854600F09AF8004800479115000063
:1000D0003002002004207146084202D0EFF309806C
:1000E00001E0EFF308807146004A1047E90500007F
:1000F0000C480D4901600D4901600D4901600D4A30
:100100000D4911600D4A0E491160002101600D4832
:1001100080470D480047FEE7FEE7FEE7FEE7FEE703
:10012000FEE700000001004059000000160000003A
:100130008800000024000040A55A00008002004012
:1001400001000000B5080000C100000030B50B46FA
:10015000014600202022012409E00D46D5409D42A1
:1001600005D31D469540491B254695404019154627
:10017000521E002DF1DC30BD03460B439B0703D01C
:1001800009E008C9121F08C0042AFAD203E00B785C
:100190000370401C491C521EF9D27047F0B51FB4C1
:1001A0000646002082B005464024019100901BE0E5
:1001B000019922460F46304600F042F8049A059B0A
:1001C000801A994110D310461946224600F028F8AB
:1001D000361A8F410197224601200021009F00F02E
:1001E0001FF838184D4100902046641E0028DFDCBF
:1001F000019B00982946324607B0F0BD064C012508
:10020000064E05E0E36807CC2B430C3C98471034BE
:10021000B442F7D3FFF758FF381A0000581A00000D
:1002200010B5202A04DB0146203A9140002010BD81
:10023000914020239C1A0346E3401943904010BD8F
:1002400010B5202A04DB0846203AD040002110BD1A
:100250000B46D340D0402024A21A914008431946AF
:1002600010BD00000EB50D4B1A6859689B680293CB
:1002700000920191810F89006A465158084A8918F5
:100280004968C306DB0E01229A401143820F920097
:100290006B469A58024BD21851600EBD20180000D0
:1002A00000020040024909680143014A1160704799
:1002B0000002004010B500F0CBFA0148006810BD04
:1002C0000000002004480068C007C00F002801D0CB
:1002D000024870470020FCE7000200400048E801A7
:1002E0000448006802210840002801D088037047B4
:1002F0000020FCE70002004010B500F0A9FA044815
:10030000406B4407640F03480068E04010BD0000E4
:10031000000200400000002010B500F099FA0448E7
:10032000406B70210840040902480068E04010BD9D
:100330000002004000000020FEB51BA000680090F5
:10034000002002901948046805200004204000287D
:1003500027D10120C0042040002801D0144D00E026
:10036000144D012040042040002801D0029518E0DF
:10037000032080032040800B69460A5C0192E0055F
:10038000C00D861C1F2040022040400A871C019A95
:100390007A431146AA0872431046FFF7D7FE800041
:1003A00002900298FEBD00000102020440020040DB
:1003B000001BB7000048E801FEB51BA000680090D4
:1003C00000200290194804680520000420400028FD
:1003D00027D10120C0042040002801D0144D00E0A6
:1003E000144D012040042040002801D0029518E05F
:1003F000032080032040800B69460A5C0192E005DF
:10040000C00D861C1F2040022040400A871C019A14
:100410007A431146AA0872431046FFF797FE800000
:1004200002900298FEBD000001020204400200405A
:10043000001BB7000048E80170B504460D46194896
:10044000006910210840064616484038006804211B
:100450000843144940390860102000F06BF8114837
:1004600040380069C008C000C01D0E49403908610D
:100470000846006A0009000128430862084600692E
:10048000C008C0002043086100F0E2F9002E07D147
:100490000448403800680421884302494039086014
:1004A00070BD000040020040F7B588B00022002374
:1004B0001E4C2546E0CDE468069705960495079402
:1004C0001A4C10342546E0CDE46802970196009559
:1004D00003948403240E002C10D00403A40FA40062
:1004E0006D462C59124D63198403250E8405E40EC4
:1004F000A5401C68AC430A9D2C431C600401640F9A
:10050000002C10D08400A40FA40004AD2C59084D79
:10051000103D62190401650FC401E40EA540146882
:10052000AC430C4314600BB0F0BD00000018000099
:10053000200200400146074A05E01046521E0028EE
:1005400001DC002070470448006908408842F4D16B
:100550000120F7E7C03D2F004002004010B50246E1
:10056000002004E013784340044CE05C521C0B462E
:100570004C1EA1B2002BF5D110BD0000A018000048
:1005800010B501208007C06B0F21090688430121A7
:100590008907C8630846C06B00010009C8630122CF
:1005A0000914044800F008F80122D103014800F0C2
:1005B00003F810BD4040004070B5034600200FE036
:1005C000012484400C40002C09D01C6846000325FF
:1005D000B540AC4346001546B5402C431C60401C5A
:1005E0001028EDD370BD0000044604A000F04EFCBE
:1005F000204601F061F800BFFEE70000496E204888
:10060000617264204661756C742048616E646C652B
:10061000720A0000C206D20E01219140014A116007
:100620007047000000E100E010B5002819DA1A4A0E
:1006300003071B0F083B9B089B00D2588307DC0E67
:10064000FF23A3409A438B071B0E8407E40EA340AD
:100650001A43114B0407240F083CA408A4001A51A4
:1006600018E00E4A03231B02D21883089B00D258BD
:100670008307DC0EFF23A3409A438B071B0E8407DE
:10068000E40EA3401A43054B032424021B198408DB
:10069000A4001A5110BD00001CED00E000E100E0D4
:1006A00010B500BF00BF00BF5920254908601620C3
:1006B000086088200860084600680028F4D000BF61
:1006C00020480068F02188431E4908600420FFF795
:1006D000E9FD1020FFF72EFF00210720FFF7ACFEF9
:1006E0001948FFF7BFFD0022032109061648FFF74E
:1006F000DBFE1648FFF7B6FD00220721090213486A
:10070000FFF7D2FE1248FFF7ADFD002207210903D3
:100710000F48FFF7C9FE01208007C06BFF210904C5
:10072000884333214904401801218907C86300F038
:100730008FF800BF00200249086000BF10BD000014
:100740000001004040410040103D805F0200805E9B
:100750000300C05E010E01229207891889680122F8
:1007600082401143020E01239B07D2189160010EB3
:100770001A4689188A68012181408A43010EC918E6
:100780008A60704710B50446204600F001F810BD9D
:1007900000BF0B4989690122D20511400029F8D117
:1007A0000A280AD10D21064A116000BF044989694F
:1007B0000122D20511400029F8D101490860704793
:1007C0000000074000B500F0EFFF00F0A9FE401C5C
:1007D000002801D100F064FF00BD000070B505469F
:1007E000002000F05DFF29460F480068FFF7AEFCCF
:1007F0000446601E0D49884201D901200CE0601EAC
:100800000B4948610321081FFFF70EFF002008492C
:100810008861072008610020002804D005A000F0AE
:1008200035FB00BFFEE770BD00000020FFFFFF00AA
:1008300000E000E05365742073797374656D207473
:1008400069636B206572726F7221210A00000000DB
:1008500070B51248006945076D0FFFF76DFD10492F
:100860000860022D03D0A8000E490C5801E00C4886
:1008700004680A48006A0007000F461C31462046FB
:10088000FFF764FC084908600849074800684A10F7
:100890008018FFF75BFC0649086070BD000200404D
:1008A00008000020E01700000000002040420F0078
:1008B0000400002000BF00BF00BF59200F4908609E
:1008C0001620086088200860084600680028F4D0D8
:1008D00000BF0B48006807210905884308490860E4
:1008E000084600680721090508430549086000BF5C
:1008F00000200249086000BF70470000000100406E
:100900000002004010B50A220121C906034800F088
:100910006BF80820FFF77EFE10BD000000000540C8
:1009200010B57D22D2000121C906064800F05CF80E
:10093000044800F009F80920FFF76CFE014800F0B8
:100940007CF810BD200005400168012252071143C8
:100950000160704730B589B0044620221E4901A8C5
:10096000FFF70AFC1D48844206D11D484069072153
:1009700009020840050A1AE018482030844206D1CE
:1009800017484069072109030840050B0FE0154887
:10099000844206D112484069072109040840050C29
:1009A00005E00F484069072109050840050D022DA3
:1009B0000DD10A48844203D008482030844203D134
:1009C000FFF79AFC09B030BDFFF7A6FCFAE7A800D4
:1009D00001A90858F6E7000038180000000005409B
:1009E0000002004000100540F7B582B006461746E9
:1009F0003046FFF7AFFF0190002400250198400822
:100A0000B84201D802240CE039460198FFF79EFB5A
:100A10000446250E002D04D0691C2046FFF796FBE6
:100A200004460398284330607460681C60430146A4
:100A30000198FFF78BFB05B0F0BD0168012292071A
:100A4000114301607047000000B500BF1148806885
:100A5000C007C00F00281BD00F480068401C0E497B
:100A60000860084600687D21C90088420AD100203C
:100A700009490860094800680421084307490860DB
:100A800000F078FE054800680821884303490860A3
:100A900000BD0000000005402C00002014000020D4
:100AA00010B500BF0F488068C007C00F002817D0DE
:100AB00000BF01200B49886000BF00F07DFE00F000
:100AC00035FD04467D21C900FFF740FB002905D113
:100AD00005480068022108430349086000F026FD2C
:100AE00010BD0000200005401400002010B5114882
:100AF000C069112109020840002801D0012000E04E
:100B00000020002809D001E000F0B4F9094880690C
:100B10000121890308400028F6D006488069712128
:100B20000840002804D009218902024800F07EF81C
:100B300010BD00000000074010B51948FFF70AFE7D
:100B4000E1214902174800F0A1F81121154800F0F1
:100B500099F80C20FFF75EFDFFF7ACFB0446214639
:100B600011A000F093F9FFF7ADFB0446214615A054
:100B700000F08CF9FFF7B4FB0446214617A000F003
:100B800085F9FFF7B9FB044621461AA000F07EF96B
:100B9000FFF7C2FB044621461DA000F077F910BD07
:100BA00010000004000007400D0A434C4B5F4765EE
:100BB0007443505546726571203A202538640D0AF9
:100BC00000000000434C4B5F476574485854467220
:100BD0006571203A202538640D0A0000434C4B5FB4
:100BE0004765744C585446726571203A2025386424
:100BF0000D0A0000434C4B5F47657450434C4B302B
:100C000046726571203A202538640D0A0000000004
:100C1000434C4B5F47657450434C4B314672657192
:100C2000203A202538640D0A000000000122120637
:100C30000A40002A02D001221204C261012292025B
:100C40000A40002A03D070228261082282610122B8
:100C5000D2020A40002A03D0426901231A434261AA
:100C6000012252030A40002A01D0054A8261012272
:100C700092030A40002A01D01F22426470470000FC
:100C80000100000142680A4342607047F0B589B034
:100C900004460E460025002718226A4903A8FFF7DC
:100CA0006BFA00200290684884420BD16748406983
:100CB00021020840050E6548006A0F21090208401C
:100CC000070A6BE0624884420CD160484069072102
:100CD00009070840050F5D48006A0F210903084015
:100CE000070B5BE05B4884420AD15848C069072182
:100CF00009060840050E5548006B07073F0F4DE0F9
:100D0000554884420BD15148C06907210907084062
:100D1000050F4E48006BF021084007093EE04F48A0
:100D200084420CD14948C069072109040840050CD8
:100D30004648006B0F2109020840070A2EE0484888
:100D400084420CD14148C069072109050840050DBE
:100D50003E48006B0F2109030840070B1EE0414885
:100D600084420CD13948C069072109020840050AAC
:100D70003648006B0F2109040840070C0EE03A4882
:100D800084420BD13148C069072109030840050B93
:100D90002E48006B0F2109050840070D0020206335
:100DA0000320E060A06831490840A060012D04D113
:100DB000FFF702FBA90003AA5050042D16D12248C8
:100DC000844208D02348844205D02448844202D07B
:100DD0002448844205D1FFF78FFAA90003AA505096
:100DE00004E0FFF799FAA90003AA5050002E26D07C
:100DF000A90003AA5058791CFFF7A8F971084018F8
:100E000031460190FFF7A2F9801E0290184902981E
:100E100088420FD9A90003AA5058791CFFF796F908
:100E2000F100401831460190FFF790F90009801E4B
:100E3000606204E00321090702980843606209B078
:100E4000F0BD0000581800000000074000020040FC
:100E500000100740002007400030074000400740D6
:100E60000050074000600740007007400FFFF0FF90
:100E7000FFFF000010B5002403480068C4B22046FC
:100E800000F0BAFB10BD0000000007400FB410B521
:100E900003A9044B044A029800F018F810BC08BCDF
:100EA00004B01847111500000C00002002E008C82B
:100EB000121F08C1002AFAD170477047002001E0D4
:100EC00001C1121F002AFBD170470000FFB591B08D
:100ED0000F460546002606E025280AD0149A1399E5
:100EE00090476D1C761C28780028F5D1304615B047
:100EF000F0BD002400940121F34A029400E0044371
:100F00006D1C2B780846203B98401042F7D128787A
:100F10002A280ED0022128780246303A092A15D80C
:100F2000009A0A235A43303A80180C436D1C0090F3
:100F3000F1E701CF0090002805DA012040030443C7
:100F4000009840420090022004436D1C28782E280F
:100F500015D10420044368786D1C2A280AD101CFDA
:100F60006D1C02900BE002990A225143303940185F
:100F70006D1C02902878014630390929F3D9287868
:100F80006C2810D006DC4C281AD068280ED06A28AD
:100F900017D104E0742813D07A2812D110E0012070
:100FA000400504430CE00121090501E00321090586
:100FB0000C436978814203D10120000524186D1C7F
:100FC0006D1C287803906E281ED00CDC632831D06D
:100FD00004DC00288AD0582811D1B2E064287BD0E4
:100FE00069280CD178E073282DD004DC6F2870D0EC
:100FF000702804D1A7E075286CD078286BD0149A9B
:1010000013999047761C62E06002400F022807D0D7
:1010100003280AD0042838680AD006603F1D56E02D
:101020003868F11706604160F8E738680680F5E730
:101030000670F3E73878694608740020487404A8FD
:101040000390012003E0386803900020C0433F1D57
:1010500061070FD5002101E00199491C029A019115
:10106000914213DA8142F7DB019A0399895C0029E6
:10107000F2D10BE0002101E00199491C019181426C
:10108000FADB019A0399895C0029F5D1019900984E
:10109000139A401A00902146149B00F03BF90199E5
:1010A0008019461807E0039803990078491C0391BA
:1010B000149A139990470198401E0190401CF2D158
:1010C0002146149B139A009800F014F986196D1CA0
:1010D00009E741E033E034E00A2000210490059163
:1010E0006002410F022905D001CFC217944603299F
:1010F00005D007E0FF1DFF08FF0003CF06E000B2A8
:10110000C2179446042902D140B2C1178C4600226E
:101110006146944506DA0A460021404291418C46D8
:101120002D2102E0210504D52B216A4611760121EB
:1011300003E0E10701D02021F7E7019154E00A2004
:101140000BE0102009E0102004900021042004434B
:1011500008200591029003E00820002105910490E9
:101160006002410F022905D001CF002294460329D5
:1011700006D006E0FF1DFF08FF0003CF8C4603E00A
:1011800080B2042900D1C0B20021019121072BD5E2
:101190000399702906D0049A1021059B4A401A43EE
:1011A00005D00EE040216A461176012108E0614633
:1011B000014306D030216A46117603995176022107
:1011C0000191049A0821059B4A401A430CD16146BB
:1011D000014301D1610707D530216A46117601210B
:1011E00001910299491E02910399582904D037A10F
:1011F00003910FA90F910DE039A1F9E76146059B15
:10120000049AFEF7CBFF039B8C469B5C0F9A521E01
:101210000F92137061460143F0D10F9807A9081A85
:1012200020300390600704D5012000048443029815
:1012300001E0012002900399884201DD401A00E09C
:10124000002041180290019809180098401A009057
:10125000E00306D42146149B139A009800F05AF834
:1012600086190020049008E006A9085C149A1399D6
:1012700090470498401C761C049001998842F3DB47
:10128000E0030CD52146149B139A009800F042F815
:10129000861904E0149A302013999047761C02991D
:1012A000481E02900029F5DC08E00F980F9900789D
:1012B000491C0F91149A13999047761C0399481E64
:1012C00003900029F1DCFBE60928010030313233BC
:1012D0003435363738396162636465660000000072
:1012E000303132333435363738394142434445465C
:1012F00000000000F8B5044600251E461746880485
:1013000004D405E039462020B0476D1C641EF9D591
:101310002846F8BDFFB50446002581B01E46C80327
:1013200001D5302700E02027880404D505E03846A1
:101330000399B0476D1C641EF9D5284605B0F0BD71
:1013400070B505460E46002431460EA0FFF79EFDFF
:1013500000BF10E0295D10A0FFF798FD601CC117C9
:10136000490F0918C910C900411A02D10CA0FFF792
:101370008DFD601C84B2B442ECDB0AA0FFF786FD51
:1013800070BD000064756D705F6275666665722081
:101390003A202532640D0A0030782532582C00009E
:1013A0000D0A00000D0A0D0A0000000070B5054688
:1013B0000024294618A0FFF769FD284600F0FAF836
:1013C00000BF0FE01B48025D21461BA0FFF75EFD3A
:1013D000AC4202D11BA0FFF759FD15A0FFF756FD47
:1013E000601CC4B2072CEDDD18A0FFF74FFD0020F4
:1013F0001849087018480068042188431649086095
:1014000000F0B8F9002404E000200A490855601CE7
:10141000C4B2072CF8DD70BD636D64207061727317
:10142000696E67206572726F72283078253258298C
:101430000D0A000022000020282564293A30782572
:10144000325800002020202A2A2A00000D0A0D0A06
:10145000000000002A0000201400002010B5002425
:101460002548006808210840C008002843D02348C8
:1014700000785A2803D00020FFF798FF35E00621B6
:101480001E48FFF76BF804461C488079A04203D041
:101490000620FFF78BFF28E01848C079A52803D065
:1014A0000720FFF783FF20E01448407801280BD085
:1014B00012484078022807D010484078032803D00B
:1014C0000E48407804280DD10B4800680421884359
:1014D000094908600AA0FFF7D9FC08210748FFF76F
:1014E0002FFF02E00120FFF761FF03480068082199
:1014F00088430149086010BD14000020220000202C
:1015000070726F63657373204F4B20210D0A0000CA
:1015100070B504460D462046FFF734F9204670BDED
:1015200001480068704700001C0000200148006866
:10153000704700001800002010B5FFF7F1FF1248B7
:101540000068042108408008002807D00E48006881
:1015500088430D4908600820FFF728FFFFF77EFF4A
:101560000948006802210840400800280AD00648BF
:1015700000688843044908600448806B01214840A2
:101580000249886310BD000014000020404800405C
:10159000FFF786F8FEF7F4FFFFF7CEFAFFF7B2F990
:1015A000FFF7BEF97D20C000FFF718F901E0FFF753
:1015B000C3FFFCE770B50546094C002605E000BFF7
:1015C0002178641C0029FBD1761CAE4202D0207821
:1015D0000028F4D12246294602A0FFF757FC70BD2F
:1015E000B019000072633D257520726573756C74C7
:1015F0003A25730D0A00000010B504460D2C0AD1DF
:101600000020234908602348006804210843214939
:10161000086000F0AFF820480078072819DA7F2C1E
:1016200001D0082C05D11C480078401E1A490870CA
:1016300008E01A4818490978445417480078401CB3
:10164000154908701448007801281FD100F088F867
:101650001CE011480078072818D17F2C01D0082CF5
:1016600005D10D480078401E0B4908700EE00B486C
:101670000949097844540748006808210843054986
:10168000086000200449087000F074F810BD0000E4
:101690002C000020140000202A000020220000203E
:1016A00001490860704700001C00002001490860E3
:1016B000704700001800002010B5044610A02168F3
:1016C000FFF7E4FB11A06168FFF7E0FB12A0A1683F
:1016D000FFF7DCFB13A0E168FFF7D8FB14A021693A
:1016E000FFF7D4FB15A06169FFF7D0FB16A0A16935
:1016F000FFF7CCFB17A0E169FFF7C8FB10BD0000A6
:10170000723020203D20307825780A007231202068
:101710003D20307825780A00723220203D20307834
:1017200025780A00723320203D20307825780A0081
:10173000723132203D20307825780A006C722020EA
:101740003D20307825780A00706320203D203078D5
:1017500025780A00707372203D20307825780A00C1
:1017600010B50348FFF7F0F80148FFF766F910BD20
:101770000000054000BF01200A49886000BF00BF8B
:10178000084600680121490788430649086000BFF0
:1017900000BF08460068890388430249086000BF0B
:1017A000704700000000054002480068401C0149E5
:1017B000086070471C00002000B507480068401C06
:1017C00005490860FFF7B2FE0449884202D30020B1
:1017D000FFF76CFF00BD00001800002060EA000069
:1017E0000048E8010080000000D8B805009600001D
:1017F000006CDC020000000000000000006CDC0255
:101800000000000004000000080000000C000000C0
:1018100000000000000000000000000010000000B8
:1018200000000000040000000800000000000000AC
:1018300004000000080000000048E80100800000EB
:101840000000000000000000000000000096000002
:1018500000000000006CDC020048E801000000000D
:1018600000800000006CDC02000000000096000018
:101870000048E8010000000000800000006CDC026D
:1018800000000000009600000048E8010000000091
:1018900000800000006CDC020000000000960000E8
:1018A00000316253C4F5A697B988DBEA7D4C1F2E40
:1018B0004372211087B6E5D4FACB98A93E0F5C6D30
:1018C00086B7E4D5427320113F0E5D6CFBCA99A820
:1018D000C5F4A796013063527C4D1E2FB889DAEB10
:1018E0003D0C5F6EF9C89BAA84B5E6D74071221300
:1018F0007E4F1C2DBA8BD8E9C7F6A59403326150F0
:10190000BB8AD9E87F4E1D2C02336051C6F7A495DF
:10191000F8C99AAB3C0D5E6F4170231285B4E7D6CF
:101920007A4B1829BE8FDCEDC3F2A19007366554BF
:1019300039085B6AFDCC9FAE80B1E2D344752617AF
:10194000FCCD9EAF38095A6B4574271681B0E3D29F
:10195000BF8EDDEC7B4A192806376455C2F3A0918F
:101960004776251483B2E1D0FECF9CAD3A0B58697F
:1019700004356657C0F1A293BD8CDFFE79481B2A5F
:10198000C1F0A3920534675678491A2BBC8DDEEF5F
:1019900082B3E0D1467724153B0A5968FFCE9DAC4F
:1019A000636F6D706172655F627566666572000077
:1019B0006572726F725F68656164006572726F72E2
:1019C0005F77726F6E675F636F6465006572726FD9
:1019D000725F77726F6E675F646174613000657209
:1019E000726F725F77726F6E675F646174613100EE
:1019F0006572726F725F77726F6E675F6461746138
:101A000032006572726F725F77726F6E675F6461CA
:101A1000746133006572726F725F63730065727216
:101A20006F725F7461696C006572726F725F746966
:101A30006D656F7574000000581A000000000020EA
:101A400030000000AC0E0000881A000030000020BA
:101A500000020000BC0E000000D8B80560000000C5
:101A600000D8B805000000000000000000000000E1
:101A70000000000000000000000000000000000066
:081A800000000000000000005E
:04000005000000F106
:00000001FF
